{
  "_format": "hh-sol-artifact-1",
  "contractName": "FileRegistry",
  "sourceName": "contracts/FileRegistry.sol",
  "abi": [
    {
      "anonymous": false,
      "inputs": [
        {
          "indexed": true,
          "internalType": "bytes32",
          "name": "fileId",
          "type": "bytes32"
        },
        {
          "indexed": true,
          "internalType": "address",
          "name": "owner",
          "type": "address"
        },
        {
          "indexed": false,
          "internalType": "string",
          "name": "name",
          "type": "string"
        },
        {
          "indexed": false,
          "internalType": "string",
          "name": "magnetURI",
          "type": "string"
        },
        {
          "indexed": false,
          "internalType": "bytes32",
          "name": "contentHash",
          "type": "bytes32"
        }
      ],
      "name": "FileRegistered",
      "type": "event"
    },
    {
      "inputs": [
        {
          "internalType": "address",
          "name": "owner",
          "type": "address"
        },
        {
          "internalType": "string",
          "name": "name",
          "type": "string"
        },
        {
          "internalType": "string",
          "name": "magnetURI",
          "type": "string"
        }
      ],
      "name": "computeFileId",
      "outputs": [
        {
          "internalType": "bytes32",
          "name": "",
          "type": "bytes32"
        }
      ],
      "stateMutability": "pure",
      "type": "function"
    },
    {
      "inputs": [
        {
          "internalType": "address",
          "name": "owner",
          "type": "address"
        },
        {
          "internalType": "string",
          "name": "name",
          "type": "string"
        },
        {
          "internalType": "string",
          "name": "magnetURI",
          "type": "string"
        }
      ],
      "name": "getByParams",
      "outputs": [
        {
          "components": [
            {
              "internalType": "address",
              "name": "owner",
              "type": "address"
            },
            {
              "internalType": "string",
              "name": "name",
              "type": "string"
            },
            {
              "internalType": "string",
              "name": "magnetURI",
              "type": "string"
            },
            {
              "internalType": "bytes32",
              "name": "contentHash",
              "type": "bytes32"
            },
            {
              "internalType": "uint256",
              "name": "registeredAt",
              "type": "uint256"
            }
          ],
          "internalType": "struct FileRegistry.FileMeta",
          "name": "",
          "type": "tuple"
        }
      ],
      "stateMutability": "view",
      "type": "function"
    },
    {
      "inputs": [
        {
          "internalType": "bytes32",
          "name": "fileId",
          "type": "bytes32"
        }
      ],
      "name": "getFile",
      "outputs": [
        {
          "components": [
            {
              "internalType": "address",
              "name": "owner",
              "type": "address"
            },
            {
              "internalType": "string",
              "name": "name",
              "type": "string"
            },
            {
              "internalType": "string",
              "name": "magnetURI",
              "type": "string"
            },
            {
              "internalType": "bytes32",
              "name": "contentHash",
              "type": "bytes32"
            },
            {
              "internalType": "uint256",
              "name": "registeredAt",
              "type": "uint256"
            }
          ],
          "internalType": "struct FileRegistry.FileMeta",
          "name": "",
          "type": "tuple"
        }
      ],
      "stateMutability": "view",
      "type": "function"
    },
    {
      "inputs": [
        {
          "internalType": "string",
          "name": "name",
          "type": "string"
        },
        {
          "internalType": "string",
          "name": "magnetURI",
          "type": "string"
        },
        {
          "internalType": "bytes32",
          "name": "contentHash",
          "type": "bytes32"
        }
      ],
      "name": "registerFile",
      "outputs": [
        {
          "internalType": "bytes32",
          "name": "fileId",
          "type": "bytes32"
        }
      ],
      "stateMutability": "nonpayable",
      "type": "function"
    }
  ],
  "bytecode": "0x608060405234801561001057600080fd5b50610d38806100206000396000f3fe608060405234801561001057600080fd5b506004361061004c5760003560e01c806335848bd71461005157806344324b5e1461007a578063473aa2a51461009b578063617d8292146100ae575b600080fd5b61006461005f36600461083f565b6100c1565b6040516100719190610906565b60405180910390f35b61008d610088366004610972565b610305565b604051908152602001610071565b6100646100a93660046109e6565b6105a8565b61008d6100bc366004610aa2565b610769565b6100c961079f565b600061013f8787878080601f01602080910402602001604051908101604052809392919081815260200183838082843760009201919091525050604080516020601f8b01819004810282018101909252898152925089915088908190840183828082843760009201919091525061076992505050565b6000818152602081905260409020549091506001600160a01b03166101975760405162461bcd60e51b81526020600482015260096024820152681b9bdd08199bdd5b9960ba1b60448201526064015b60405180910390fd5b60008181526020818152604091829020825160a0810190935280546001600160a01b0316835260018101805491928401916101d190610b16565b80601f01602080910402602001604051908101604052809291908181526020018280546101fd90610b16565b801561024a5780601f1061021f5761010080835404028352916020019161024a565b820191906000526020600020905b81548152906001019060200180831161022d57829003601f168201915b5050505050815260200160028201805461026390610b16565b80601f016020809104026020016040519081016040528092919081815260200182805461028f90610b16565b80156102dc5780601f106102b1576101008083540402835291602001916102dc565b820191906000526020600020905b8154815290600101906020018083116102bf57829003601f168201915b505050505081526020016003820154815260200160048201548152505091505095945050505050565b6000846103445760405162461bcd60e51b815260206004820152600d60248201526c1b985b59481c995c5d5a5c9959609a1b604482015260640161018e565b826103835760405162461bcd60e51b815260206004820152600f60248201526e1b5859db995d081c995c5d5a5c9959608a1b604482015260640161018e565b6103f73387878080601f01602080910402602001604051908101604052809392919081815260200183838082843760009201919091525050604080516020601f8b01819004810282018101909252898152925089915088908190840183828082843760009201919091525061076992505050565b6000818152602081905260409020549091506001600160a01b0316156104545760405162461bcd60e51b8152602060048201526012602482015271185b1c9958591e481c9959da5cdd195c995960721b604482015260640161018e565b6040518060a00160405280336001600160a01b0316815260200187878080601f016020809104026020016040519081016040528093929190818152602001838380828437600092019190915250505090825250604080516020601f8801819004810282018101909252868152918101919087908790819084018382808284376000920182905250938552505050602080830186905242604093840152848252818152919020825181546001600160a01b0319166001600160a01b039091161781559082015160018201906105289082610b9f565b506040820151600282019061053d9082610b9f565b506060820151816003015560808201518160040155905050336001600160a01b0316817f6362ed6af781b0c78b5339775b2dad736c9731a6d8dad8641f1b025386f716468888888888604051610597959493929190610c88565b60405180910390a395945050505050565b6105b061079f565b6000828152602081905260409020546001600160a01b03166106005760405162461bcd60e51b81526020600482015260096024820152681b9bdd08199bdd5b9960ba1b604482015260640161018e565b60008281526020818152604091829020825160a0810190935280546001600160a01b03168352600181018054919284019161063a90610b16565b80601f016020809104026020016040519081016040528092919081815260200182805461066690610b16565b80156106b35780601f10610688576101008083540402835291602001916106b3565b820191906000526020600020905b81548152906001019060200180831161069657829003601f168201915b505050505081526020016002820180546106cc90610b16565b80601f01602080910402602001604051908101604052809291908181526020018280546106f890610b16565b80156107455780601f1061071a57610100808354040283529160200191610745565b820191906000526020600020905b81548152906001019060200180831161072857829003601f168201915b50505050508152602001600382015481526020016004820154815250509050919050565b600083838360405160200161078093929190610cc2565b6040516020818303038152906040528051906020012090509392505050565b6040518060a0016040528060006001600160a01b03168152602001606081526020016060815260200160008019168152602001600081525090565b80356001600160a01b03811681146107f157600080fd5b919050565b60008083601f84011261080857600080fd5b50813567ffffffffffffffff81111561082057600080fd5b60208301915083602082850101111561083857600080fd5b9250929050565b60008060008060006060868803121561085757600080fd5b610860866107da565b9450602086013567ffffffffffffffff8082111561087d57600080fd5b61088989838a016107f6565b909650945060408801359150808211156108a257600080fd5b506108af888289016107f6565b969995985093965092949392505050565b6000815180845260005b818110156108e6576020818501810151868301820152016108ca565b506000602082860101526020601f19601f83011685010191505092915050565b602080825282516001600160a01b03168282015282015160a0604083015260009061093460c08401826108c0565b90506040840151601f1984830301606085015261095182826108c0565b91505060608401516080840152608084015160a08401528091505092915050565b60008060008060006060868803121561098a57600080fd5b853567ffffffffffffffff808211156109a257600080fd5b6109ae89838a016107f6565b909750955060208801359150808211156109c757600080fd5b506109d4888289016107f6565b96999598509660400135949350505050565b6000602082840312156109f857600080fd5b5035919050565b634e487b7160e01b600052604160045260246000fd5b600082601f830112610a2657600080fd5b813567ffffffffffffffff80821115610a4157610a416109ff565b604051601f8301601f19908116603f01168101908282118183101715610a6957610a696109ff565b81604052838152866020858801011115610a8257600080fd5b836020870160208301376000602085830101528094505050505092915050565b600080600060608486031215610ab757600080fd5b610ac0846107da565b9250602084013567ffffffffffffffff80821115610add57600080fd5b610ae987838801610a15565b93506040860135915080821115610aff57600080fd5b50610b0c86828701610a15565b9150509250925092565b600181811c90821680610b2a57607f821691505b602082108103610b4a57634e487b7160e01b600052602260045260246000fd5b50919050565b601f821115610b9a57600081815260208120601f850160051c81016020861015610b775750805b601f850160051c820191505b81811015610b9657828155600101610b83565b5050505b505050565b815167ffffffffffffffff811115610bb957610bb96109ff565b610bcd81610bc78454610b16565b84610b50565b602080601f831160018114610c025760008415610bea5750858301515b600019600386901b1c1916600185901b178555610b96565b600085815260208120601f198616915b82811015610c3157888601518255948401946001909101908401610c12565b5085821015610c4f5787850151600019600388901b60f8161c191681555b5050505050600190811b01905550565b81835281816020850137506000828201602090810191909152601f909101601f19169091010190565b606081526000610c9c606083018789610c5f565b8281036020840152610caf818688610c5f565b9150508260408301529695505050505050565b6001600160a01b0384168152606060208201819052600090610ce6908301856108c0565b8281036040840152610cf881856108c0565b969550505050505056fea2646970667358221220125bd39f4e9fc3b1c1e5a6af743448bd765114a018d8fceba9fa5831eb145d1b64736f6c63430008140033",
  "linkReferences": {},
  "deployedLinkReferences": {}
}